:1000000013050000B7D2D2029B82322D9392C20018
:100010009382D2D29392C2009382322D9392D200D5
:100020009382A2A5B3E30200B7D5D2029B85352DFA
:100030009395C5009385D5D29395C5009385352DAD
:100040009395D5009385A5A5639AB31EB7322DFD70
:100050009B82D2D29392C2009382322D9392C2009D
:100060009382D2D29392D2009382525AB3E3020087
:10007000B7352DFD9B85D5D29395C5009385352D3C
:100080009395C5009385D5D29395D5009385555A00
:100090006396B31A37D3D2021B03332D1313C30055
:1000A0001303D3D21313C3001303332D1313D3003D
:1000B0001303A3A5B3636000B7D5D2029B85352D8A
:1000C0009395C5009385D5D29395C5009385352D1D
:1000D0009395D5009385A5A56392B31637332DFD6F
:1000E0001B03D3D21313C3001303332D1313C30005
:1000F0001303D3D21313D3001303535AB363600013
:10010000B7352DFD9B85D5D29395C5009385352DAB
:100110009395C5009385D5D29395D5009385555A6F
:10012000639EB310B7D2D2029B82322D9392C2004B
:100130009382D2D29392C2009382322D9392D200B4
:100140009382A2A53703F1001B03F3F01313C3003E
:100150001303F3001313C3001303F30F1313C300AC
:100160001303030FB3E36200B705B02F9B85D5D708
:100170009395C5009385B52F939555019385A5AFAC
:10018000639EB30AB7322DFD9B82D2D29392C200F6
:100190009382322D9392C2009382D2D29392D20054
:1001A0009382525A3703F1001B03F3F01313C30079
:1001B0001303F3001313C3001303F30F1313C3004C
:1001C0001303030FB3E36200B7D5D7FF9B85B57F59
:1001D0009395D5009385B5F5939505019385F5AF76
:1001E0009395C5009385555F639AB304B7D2D20245
:1001F0009B82322D9392C2009382D2D29392C200FC
:100200009382322D9392D2009382A2A53703F100FC
:100210001B03F3F01313C3001303F3001313C30002
:100220001303F30F1313C3001303030F33E0620030
:10023000930500006314B000130510006700000070
:0102400000BD
:00000001FF
