:1000000013050000970201009382420003C302001F
:10001000930580036312B30E97020100938202FFDF
:1000200003C322009305A0036318B30C97020100D9
:100030009382C2FD03C3E2FF93056003631EB30A0C
:1000400097020100938272FC03C3020093057003C0
:100050006314B30A97020100938232FB03C32200A8
:1000600093059003631AB308970201009382F2F993
:1000700003C3E2FF930550036310B3089702010026
:100080009382C2F903C302009305800F6316B3067F
:1000900097020100938282F803C322009305A00F08
:1000A000631CB30497020100938242F703C3E2FF8B
:1000B0009305600F6312B304970201009382F2F577
:1000C00003C302009305700F6318B3029702010087
:1000D0009382B2F403C322009305900F631EB30012
:1000E00097020100938272F303C3E2FF9305500F5E
:0D00F0006314B3001305100067000000004A
:020000021000EC
:10000000303132333435363738393A3B3C3D3E3F78
:10001000F0F1F2F3F4F5F6F7F8F9FAFBFCFDFEFF68
:00000001FF
