:1000000013050000B77224009B82D28A9392C2002B
:100010009382B2F09392C2009382724D9392F20057
:100020009382D2C81BD30200B7856B5A9B85D5C873
:100030006310B312B77224009B82D28A9392C200DB
:100040009382B2F09392C2009382724D9392F20027
:100050009382D2C81BD38200B7755A009B85C5B75F
:100060006318B30EB77224009B82D28A9392C200A7
:100070009382B2F09392C2009382724D9392F200F7
:100080009382D2C81BD342019305605A6312B30C0A
:10009000B77224009B82D28A9392D200938292E21A
:1000A0009392C2009382B26D9392E2009382827D1A
:1000B0001BD30200B7C5B6A59B85857D631AB3081F
:1000C000B77224009B82D28A9392D200938292E2EA
:1000D0009392C2009382B26D9392E2009382827DEA
:1000E0001BD38200B7B5A5009B85756C6312B30660
:1000F000B77224009B82D28A9392D200938292E2BA
:100100009392C2009382B26D9392E2009382827DB9
:100110001BD34201B71500009B85B5A5631AB30236
:10012000B77224009B82D28A9392D200938292E289
:100130009392C2009382B26D9392E2009382827D89
:100140001BD04201930500006314B000130510009A
:05015000670000000043
:00000001FF
