:10000000130500001304803E1329047D930510009E
:100010006314B90C13040083132984C193051000E1
:10002000631CB90A130480C11329843E9305100090
:100030006314B90A130400001329843E93051000C9
:10004000631CB908130480C1132904009305100030
:100050006314B9081304007D1329843E930500003E
:10006000631CB906130480C113290483930500009F
:100070006314B9061304803E132984C1930500005C
:10008000631CB9041304803E132904009305000087
:100090006314B90413040000132984C193050000FC
:1000A000631CB9021304803E1329843E93050000AB
:1000B0006314B902130480C1132984C1930500009D
:1000C000631CB90013040000132904009305000009
:0D00D0006314B90013051000670000000064
:00000001FF
