:1000000013050000B7D2D2029B82322D9392C20018
:100010009382D2D29392C2009382322D9392D200D5
:100020009382A2A5B3C30200B7D5D2029B85352D1A
:100030009395C5009385D5D29395C5009385352DAD
:100040009395D5009385A5A5639EB31EB7322DFD6C
:100050009B82D2D29392C2009382322D9392C2009D
:100060009382D2D29392D2009382525AB3C30200A7
:10007000B7352DFD9B85D5D29395C5009385352D3C
:100080009395C5009385D5D29395D5009385555A00
:10009000639AB31A37D3D2021B03332D1313C30051
:1000A0001303D3D21313C3001303332D1313D3003D
:1000B0001303A3A5B3436000B7D5D2029B85352DAA
:1000C0009395C5009385D5D29395C5009385352D1D
:1000D0009395D5009385A5A56396B31637332DFD6B
:1000E0001B03D3D21313C3001303332D1313C30005
:1000F0001303D3D21313D3001303535AB343600033
:10010000B7352DFD9B85D5D29395C5009385352DAB
:100110009395C5009385D5D29395D5009385555A6F
:100120006392B312B7D2D2029B82322D9392C20055
:100130009382D2D29392C2009382322D9392D200B4
:100140009382A2A53703F1001B03F3F01313C3003E
:100150001303F3001313C3001303F30F1313C300AC
:100160001303030FB3C36200B76555059B85B5AA9A
:100170009395C500938555A59395C5009385B55571
:100180009395C5009385A5AA639EB30AB7322DFD4A
:100190009B82D2D29392C2009382322D9392C2005C
:1001A0009382D2D29392D2009382525A3703F100B3
:1001B0001B03F3F01313C3001303F3001313C30063
:1001C0001303F30F1313C3001303030FB3C362002E
:1001D000B7A5AAFA9B8555559395C5009385B55A41
:1001E0009395C500938555AA9395C500938555555C
:1001F000639AB304B7D2D2029B82322D9392C2008B
:100200009382D2D29392C2009382322D9392D200E3
:100210009382A2A53703F1001B03F3F01313C3006D
:100220001303F3001313C3001303F30F1313C300DB
:100230001303030F33C06200930500006314B00082
:0902400013051000670000000026
:00000001FF
