:1000000013050000B79290009B8212099392C200E0
:10001000938292909392C200938212099392C200AB
:100020009382929037D3D2021B03332D1313C30054
:100030001303D3D21313C3001303332D1313D300AD
:100040001303A3A5739322F1B79590009B8515091F
:100050009395C500938595909395C5009385150953
:100060009395C50093859590639EB212B7D5D20241
:100070009B85352D9395C5009385D5D29395C50065
:100080009385352D9395D5009385A5A5631CB31055
:1000900073A322F1B79590009B8515099395C50030
:1000A000938595909395C500938515099395C50003
:1000B000938595906398B20EB7D5D2029B85352D66
:1000C0009395C5009385D5D29395C5009385352D1D
:1000D0009395D5009385A5A56316B30C73B322F150
:1000E000B79590009B8515099395C50093859590CC
:1000F0009395C500938515099395C50093859590B3
:100100006392B20AB7D5D2029B85352D9395C5006F
:100110009385D5D29395C5009385352D9395D500BC
:100120009385A5A56310B30873D324F1B7D5D20284
:100130009B85352D9395C5009385D5D29395C500A4
:100140009385352D9395D5009385A5A5631CB304A0
:1001500073E324F1B7D5D2029B85352D9395C50065
:100160009385D5D29395C5009385352D9395D5006C
:100170009385A5A56318B30273F324F1B7D5D20212
:100180009B85352D9395C5009385D5D29395C50054
:100190009385352D9395D5009385A5A56314B3005C
:0901A000130510006700000000C7
:00000001FF
