:1000000013050000B7D2D2029B82322D9392C20018
:100010009382D2D29392C2009382322D9392D200D5
:100020009382A2A513830200B7D5D2029B85352DFA
:100030009395C5009385D5D29395C5009385352DAD
:100040009395D5009385A5A5631EB31CB7D2D202A4
:100050009B82322D9392C2009382D2D29392C2009D
:100060009382322D9392D2009382A2A51383020130
:10007000B7D5D2029B85352D9395C5009385D5D2F2
:100080009395C5009385352D9395D5009385A5A6A9
:10009000631AB318B7D2D2029B82322D9392C20058
:1000A0009382D2D29392C2009382322D9392D20045
:1000B0009382A2A5138302FFB7D5D2029B85352D6B
:1000C0009395C5009385D5D29395C5009385352D1D
:1000D0009395D5009385A5A46316B3149B02F0FFF6
:1000E0009392F2039382F2FF138302019B05F0FFC8
:1000F0009395F5039385F5006316B312B7322DFD82
:100100009B82D2D29392C2009382322D9392C200EC
:100110009382D2D29392D2009382525A13830200D6
:10012000B7352DFD9B85D5D29395C5009385352D8B
:100130009395C5009385D5D29395D5009385555A4F
:100140006312B30EB7322DFD9B82D2D29392C200BE
:100150009382322D9392C2009382D2D29392D20094
:100160009382525A13830201B7352DFD9B85D5D258
:100170009395C5009385352D9395C5009385D5D26C
:100180009395D5009385555B631EB308B7322DFD5B
:100190009B82D2D29392C2009382322D9392C2005C
:1001A0009382D2D29392D2009382525A138302FF47
:1001B000B7352DFD9B85D5D29395C5009385352DFB
:1001C0009395C5009385D5D29395D50093855559C0
:1001D000631AB3049B02F0FF9392F2039382F2003E
:1001E000138302FF9B05F0FF9395F5039385F5FFBD
:1001F000631AB302B7D2D2029B82322D9392C2000D
:100200009382D2D29392C2009382322D9392D200E3
:100210009382A2A513800201930500006314B0002D
:0902200013051000670000000046
:00000001FF
