:1000000013050000B7D2D2029B82322D9392C20018
:100010009382D2D29392C2009382322D9392D200D5
:100020009382A2A53B830240B7655A5A9B85A5A53A
:100030006314B318B7D2D2029B82322D9392C200BE
:100040009382D2D29392C2009382322D9392D200A5
:100050009382A2A513030001BB836240B7655A5A7D
:100060009B85A5A4639AB314B7D2D2029B82322D8A
:100070009392C2009382D2D29392C2009382322D85
:100080009392D2009382A2A5130300FFBB83624028
:10009000B7655A5A9B85A5A66390B3129B021000C0
:1000A000939202029382F2FF9392F2019382F2FF03
:1000B000130300FFBB836240B70500809B85F500FA
:1000C000639CB30EB7322DFD9B82D2D29392C200B5
:1000D0009382322D9392C2009382D2D29392D20015
:1000E0009382525ABB830240B7A5A5A59B85555A5A
:1000F0006394B30CB7322DFD9B82D2D29392C2008F
:100100009382322D9392C2009382D2D29392D200E4
:100110009382525A130300FFBB836240B7A5A5A583
:100120009B85555B639AB308B7322DFD9B82D2D273
:100130009392C2009382322D9392C2009382D2D2C4
:100140009392D2009382525A13030001BB83624000
:10015000B7A5A5A59B8555596390B3069B02F0FFF3
:1001600093920202938212009392F2019382F20020
:1001700013030001BB836240B70500809B85F5FF38
:10018000639CB302B7D2D2029B82322D9392C200FB
:100190009382D2D29392C2009382322D9392D20054
:1001A0009382A2A5130300013B80624093050000E7
:0D01B0006314B0001305100067000000008C
:00000001FF
