:1000000013050000B7D2B4009B82926F9392E20076
:10001000938292689392D200938252349392C20058
:100020009382826713D30240B7D5B4009B85956F46
:100030009395E500938595689395D5009385553400
:100040009395C50093858567631EB322B7D2B4002C
:100050009B82926F9392E200938292689392D20075
:10006000938252349392C2009382826713D34240A8
:10007000B7856B5A9B85D5C89395E5009385D54880
:100080009395E50093857556631EB31EB7D2B400F1
:100090009B82926F9392E200938292689392D20035
:1000A000938252349392C2009382826713D30241A7
:1000B000B7755A009B85D5B79395C5009385158D67
:1000C0009395C50093854523631EB31AB7D2B40038
:1000D0009B82926F9392E200938292689392D200F5
:1000E000938252349392C2009382826713D3024266
:1000F000B7856B5A9B85D5C86316B318B7D2B400C1
:100100009B82926F9392E200938292689392D200C4
:10011000938252349392C2009382826713D3024334
:10012000B76500009B85B5A6631EB314B7B22DFD5D
:100130009B82F2639392C200938292C09392D20008
:10014000938252349392C2009382826713D3024007
:10015000B7B52DFD9B85F5639395C500938595C037
:100160009395D500938555349395C5009385856700
:10017000631AB310B7B22DFD9B82F2639392C20053
:10018000938292C09392D200938252349392C2008F
:100190009382826713D34240B7E5B6F49B85B58F4F
:1001A000939515019385D5489395E50093857556EC
:1001B000631AB30CB7B22DFD9B82F2639392C20017
:1001C000938292C09392D200938252349392C2004F
:1001D0009382826713D30241B7B5F4FF9B85956D77
:1001E0009395F500938515D89395C5009385452380
:1001F000631AB308B7B22DFD9B82F2639392C200DB
:10020000938292C09392D200938252349392C2000E
:100210009382826713D30242B7C5B6A59B85857DBD
:100220006312B306B7B22DFD9B82F2639392C200B4
:10023000938292C09392D200938252349392C200DE
:100240009382826713D30243B7A5FFFF9B85655B4B
:10025000631AB302B7B22DFD9B82F2639392C20080
:10026000938292C09392D200938252349392C200AE
:100270009382826713D04241930500006314B0005B
:09028000130510006700000000E6
:00000001FF
