:1000000013050000B77224009B82D28A9392C2002B
:100010009382B2F09392C2009382724D9392F20057
:100020009382D2C8930300003BD37240B7856B5ACA
:100030009B85D5C8631CB312B77224009B82D28AF9
:100040009392C2009382B2F09392C2009382724D57
:100050009392F2009382D2C8930380003BD3724004
:10006000B7755A009B85C5B76312B310B7722400E9
:100070009B82D28A9392C2009382B2F09392C20082
:100080009382724D9392F2009382D2C8930300033D
:100090003BD37240B76500009B85B5A66318B30CCF
:1000A000B77224009B82D28A9392D200938292E20A
:1000B0009392C2009382B26D9392E2009382827D0A
:1000C000930300003BD37240B7C5B6A59B85857DE1
:1000D000631EB308B77224009B82D28A9392D20027
:1000E000938292E29392C2009382B26D9392E20065
:1000F0009382827D930340013BD372409305B0A568
:100100006316B306B77224009B82D28A9392D20000
:10011000938292E29392C2009382B26D9392E20034
:100120009382827D9303C0023BD37240B765FAFF8E
:100130009B85C5B6631CB302B77224009B82D28A2A
:100140009392D200938292E29392C2009382B26D14
:100150009392E2009382827D930340013BD07240F0
:10016000930500006314B000130510006700000041
:01017000008E
:00000001FF
