:1000000013050000B77224009B82D28A9392C2002B
:100010009382B2F09392C2009382724D9392F20057
:100020009382D2C81BD30240B7856B5A9B85D5C833
:10003000631EB310B77224009B82D28A9392C200CF
:100040009382B2F09392C2009382724D9392F20027
:100050009382D2C81BD38240B7755A009B85C5B71F
:100060006316B30EB77224009B82D28A9392C200A9
:100070009382B2F09392C2009382724D9392F200F7
:100080009382D2C81BD342419305605A6310B30CCC
:10009000B77224009B82D28A9392D200938292E21A
:1000A0009392C2009382B26D9392E2009382827D1A
:1000B0001BD30240B7C5B6A59B85857D6318B308E1
:1000C000B77224009B82D28A9392D200938292E2EA
:1000D0009392C2009382B26D9392E2009382827DEA
:1000E0001BD38240B7B5A5FF9B85756C6310B30623
:1000F000B77224009B82D28A9392D200938292E2BA
:100100009392C2009382B26D9392E2009382827DB9
:100110001BD342419305B0A5631AB302B772240002
:100120009B82D28A9392D200938292E29392C200EF
:100130009382B26D9392E2009382827D1BD0424102
:10014000930500006314B000130510006700000061
:0101500000AE
:00000001FF
