:1000000013050000B7D2D2029B82322D9392C20018
:100010009382D2D29392C2009382322D9392D200D5
:100020009382A2A513E30200B7D5D2029B85352D9A
:100030009395C5009385D5D29395C5009385352DAD
:100040009395D5009385A5A56312B316B7322DFD00
:100050009B82D2D29392C2009382322D9392C2009D
:100060009382D2D29392D2009382525A13E3020027
:10007000B7352DFD9B85D5D29395C5009385352D3C
:100080009395C5009385D5D29395D5009385555A00
:10009000631EB310B7D2D2029B82322D9392C2005C
:1000A0009382D2D29392C2009382322D9392D20045
:1000B0009382A2A513E3F200B7D5D2029B85352D1A
:1000C0009395C5009385D5D29395C5009385352D1D
:1000D0009395D5009385F5A5631AB30CB7322DFD22
:1000E0009B82D2D29392C2009382322D9392C2000D
:1000F0009382D2D29392D2009382525A13E3F200A7
:10010000B7352DFD9B85D5D29395C5009385352DAB
:100110009395C5009385D5D29395D5009385F55ACF
:100120006316B308B7D2D2029B82322D9392C200DB
:100130009382D2D29392C2009382322D9392D200B4
:100140009382A2A513E3F2F09305F0F56310B306D2
:10015000B7322DFD9B82D2D29392C2009382322D70
:100160009392C2009382D2D29392D2009382525A37
:1001700013E3F2F09305F0FA631AB302B7D2D20296
:100180009B82322D9392C2009382D2D29392C2006C
:100190009382322D9392D2009382A2A513E0F200B3
:1001A000930500006314B000130510006700000001
:0101B000004E
:00000001FF
