:100000001305000037342D001B04D4D21314C40090
:100010001304342D1314C4001304D4D21314D400C5
:100020001304545AB7D452009B84342D9394C400C3
:100030009384D4D29394C4009384342D9394D400A5
:100040009384A4A563469400130500006700000094
:1000500037342DFD1B04D4D21314C4001304342DE3
:100060001314C4001304D4D21314D4001304545A28
:10007000B7B452FD9B8434D59394C400938454AD9B
:100080009394D4009384B4559394C400938454A55A
:1000900063469400130500006700000037342DFD0F
:1000A0001B04D4D21314C4001304342D1314C4003D
:1000B0001304D4D21314D4001304545AB7D4D20264
:1000C0009B84342D9394C4009384D4D29394C4001D
:1000D0009384342D9394D4009384A4A56346940010
:1000E000130500006700000013040000B7D4D2021B
:1000F0009B84342D9394C4009384D4D29394C400ED
:100100009384342D9394D4009384A4A563469400DF
:10011000130500006700000037342DFD1B04D4D206
:100120001314C4001304342D1314C4001304D4D2C4
:100130001314D4001304545A93040000634694002B
:10014000130500006700000037D452001B04342D53
:100150001314C4001304D4D21314C4001304342D94
:100160001314D4001304A4A5B7342D009B84D4D257
:100170009394C4009384342D9394C4009384D4D274
:100180009394D4009384545A634494006F00C00045
:10019000130500006700000037B452FD1B0434D57E
:1001A0001314C400130454AD1314D4001304B45531
:1001B0001314C400130454A5B7342DFD9B84D4D26A
:1001C0009394C4009384342D9394C4009384D4D224
:1001D0009394D4009384545A634494006F00C000F5
:1001E000130500006700000037D4D2021B04342D31
:1001F0001314C4001304D4D21314C4001304342DF4
:100200001314D4001304A4A5B7342DFD9B84D4D2B9
:100210009394C4009384342D9394C4009384D4D2D3
:100220009394D4009384545A634494006F00C000A4
:10023000130500006700000037D4D2021B04342DE0
:100240001314C4001304D4D21314C4001304342DA3
:100250001314D4001304A4A5930400006344940071
:100260006F00C000130500006700000013040000C9
:10027000B7342DFD9B84D4D29394C4009384342D41
:100280009394C4009384D4D29394D4009384545A06
:10029000634494006F00C000130500006700000075
:1002A00037D4D2021B04342D1314C4001304D4D247
:1002B0001314C4001304342D1314D4001304A4A580
:1002C000B7D4D2029B84342D9394C4009384D4D2A7
:1002D0009394C4009384342D9394D4009384A4A560
:1002E000634494006F00C000130500006700000025
:1002F00037342DFD1B04D4D21314C4001304342D41
:100300001314C4001304D4D21314D4001304545A85
:10031000B7342DFD9B84D4D29394C4009384342DA0
:100320009394C4009384D4D29394D4009384545A65
:10033000634494006F00C0001305000067000000D4
:100340001304000093040000634494006F00C00095
:1003500013050000670000006F0080006F000005BB
:1003600037342D001B04D4D21314C4001304342DCD
:100370001314C4001304D4D21314D4001304545A15
:10038000B7D452009B84342D9394C4009384D4D268
:100390009394C4009384342D9394D4009384A4A59F
:1003A000E34E94FA13050000670000006F00800020
:1003B0006F00000537342DFD1B04D4D21314C40084
:1003C0001304342D1314C4001304D4D21314D40012
:1003D0001304545AB7B452FD9B8434D59394C4008B
:1003E000938454AD9394D4009384B4559394C400EF
:1003F000938454A5E34E94FA1305000067000000AF
:100400006F0080006F00000537342DFD1B04D4D22F
:100410001314C4001304342D1314C4001304D4D2D1
:100420001314D4001304545AB7D4D2029B84342D2D
:100430009394C4009384D4D29394C4009384342DB1
:100440009394D4009384A4A5E34E94FA130500007A
:10045000670000006F0080006F004003130400007D
:10046000B7D4D2029B84342D9394C4009384D4D205
:100470009394C4009384342D9394D4009384A4A5BE
:10048000E34C94FC13050000670000006F0080003F
:100490006F00400337342DFD1B04D4D21314C40065
:1004A0001304342D1314C4001304D4D21314D40031
:1004B0001304545A93040000E34C94FC1305000009
:1004C000670000006F00C000130500006700000017
:1004D00037D452001B04342D1314C4001304D4D297
:1004E0001314C4001304342D1314D4001304A4A54E
:1004F000B7342D009B84D4D29394C4009384342DBC
:100500009394C4009384D4D29394D4009384545A83
:10051000E34C94FA6F00C000130500006700000070
:1005200037B452FD1B0434D51314C400130454AD66
:100530001314D4001304B4551314C400130454A5A5
:10054000B7342DFD9B84D4D29394C4009384342D6E
:100550009394C4009384D4D29394D4009384545A33
:10056000E34C94FA6F00C000130500006700000020
:1005700037D4D2021B04342D1314C4001304D4D274
:100580001314C4001304342D1314D4001304A4A5AD
:10059000B7342DFD9B84D4D29394C4009384342D1E
:1005A0009394C4009384D4D29394D4009384545AE3
:1005B000E34C94FA6F00C0001305000067000000D0
:1005C00037D4D2021B04342D1314C4001304D4D224
:1005D0001314C4001304342D1314D4001304A4A55D
:1005E00093040000E34A94FC6F00C0001305000070
:1005F0006700000013040000B7342DFD9B84D4D2A3
:100600009394C4009384342D9394C4009384D4D2DF
:100610009394D4009384545AE34A94FC6F00C0002E
:10062000130500006700000037D4D2021B04342DEC
:100630001314C4001304D4D21314C4001304342DAF
:100640001314D4001304A4A5B7D4D2029B84342D70
:100650009394C4009384D4D29394C4009384342D8F
:100660009394D4009384A4A5E34C94FA6F00C00043
:10067000130500006700000037342DFD1B04D4D2A1
:100680001314C4001304342D1314C4001304D4D25F
:100690001314D4001304545AB7342DFD9B84D4D2C0
:1006A0009394C4009384342D9394C4009384D4D23F
:1006B0009394D4009384545AE34C94FA6F00C0008E
:1006C00013050000670000001304000093040000FD
:0D06D000E34894FE130510006700000000D1
:00000001FF
