:1000000013050000B7D2B4009B82926F9392E20076
:10001000938292689392D200938252349392C20058
:10002000938282679303000033937200B7D5B400C4
:100030009B85956F9395E500938595689395D5007D
:10004000938555349395C50093858567631AB320CE
:10005000B7D2B4009B82926F9392E200938292682F
:100060009392D200938252349392C2009382826719
:100070009303400033937200B7E59AFE9B8535F2F7
:100080009395C500938595449395D5009385B5A226
:100090009395D500938505786314B31CB7D2B4004B
:1000A0009B82926F9392E200938292689392D20025
:1000B000938252349392C200938282679303000327
:1000C00033937200B71500009B85F5AC939535030B
:1000D0006318B318B7D2B4009B82926F9392E20078
:1000E000938292689392D200938252349392C20088
:1000F000938282679303000533937200B7D507009C
:100100009B85158D9395D500938595469395C50050
:100110009385F5AC939535016314B314B7B22DFDF7
:100120009B82F2639392C200938292C09392D20018
:10013000938252349392C2009382826793030000A9
:1001400033937200B7B52DFD9B85F5639395C5007C
:10015000938595C09395D500938555349395C500A7
:1001600093858567631EB30EB7B22DFD9B82F26344
:100170009392C200938292C09392D200938252349F
:100180009392C2009382826793034000339372007C
:10019000B7E5B6009B85B58F9395D50093859504FB
:1001A0009395D5009385B5A29395D5009385057851
:1001B0006318B30AB7B22DFD9B82F2639392C2001B
:1001C000938292C09392D200938252349392C2004F
:1001D000938282679303000333937200B715000084
:1001E0009B85F5AC93953503631CB306B7B22DFD23
:1001F0009B82F2639392C200938292C09392D20048
:10020000938252349392C2009382826793030005D3
:1002100033937200B725B08F9B8595469395C500A3
:100220009385F5AC93953501631CB302B7B22DFDF0
:100230009B82F2639392C200938292C09392D20007
:10024000938252349392C200938282679303400157
:1002500033907200930500006314B0001305100082
:05026000670000000032
:00000001FF
