:1000000013050000B7D2D2029B82322D9392C20018
:100010009382D2D29392C2009382322D9392D200D5
:100020009382A2A51B830200B7655A5A9B85A5A59A
:10003000631CB314B7D2D2029B82322D9392C200BA
:100040009382D2D29392C2009382322D9392D200A5
:100050009382A2A51B830201B7655A5A9B85A5A668
:100060006314B312B7D2D2029B82322D9392C20094
:100070009382D2D29392C2009382322D9392D20075
:100080009382A2A51B8302FFB7655A5A9B85A5A43C
:10009000631CB30EB70200809B82F2FF1B83020138
:1000A000B70500809B85F5006310B30EB7322DFDB8
:1000B0009B82D2D29392C2009382322D9392C2003D
:1000C0009382D2D29392D2009382525A1B8302001F
:1000D000B7A5A5A59B85555A6318B30AB7322DFD60
:1000E0009B82D2D29392C2009382322D9392C2000D
:1000F0009382D2D29392D2009382525A1B830201EE
:10010000B7A5A5A59B85555B6310B308B7322DFD38
:100110009B82D2D29392C2009382322D9392C200DC
:100120009382D2D29392D2009382525A1B8302FFBF
:10013000B7A5A5A59B8555596318B3049B0210006C
:100140009392F2019382F2001B8302FFB7050080B5
:100150009B85F5FF631AB302B7D2D2029B82322D80
:100160009392C2009382D2D29392C2009382322D94
:100170009392D2009382A2A51B80020193050000F6
:0D0180006314B000130510006700000000BC
:00000001FF
