:1000000037010080130101001304000037050100CF
:1000100003250500B705010083A54500370601004B
:1000200003268600B706010083A6C600EF00800005
:1000300067000000130101FD232681021304010360
:10004000232EA4FC232CB4FC232AC4FC2328D4FC98
:100050000327C4FD832784FD3307F700832644FD6F
:10006000832704FDB387F600B307F7402326F4FE89
:100070008327C4FE138507000324C1021301010373
:040080006780000095
:020000021000EC
:1000000017000000F8000000190000000F000000B9
:00000001FF
