:100000001B0110001311F10113040000EF00C025C3
:100010006700000000000000130101FE233C810086
:1000200013040102930705002326F4FE8327C4FE70
:100030009BD7F7011B8707008327C4FE9BD7670068
:100040009B870700B347F7001B8707008327C4FE81
:100050009BD747009B870700B347F7001B87070024
:100060008327C4FE9BD727009B870700B347F70071
:100070001B8707008327C4FE9BD717009B870700B9
:10008000B347F7001B8707008327C4FEB3C7E70009
:100090009B8707009B97F7011B8707008327C4FEF8
:1000A0009BD717009B870700B367F7002326F4FE52
:1000B0008327C4FE13850700033481011301010265
:1000C00067800000130101FC233C110223388102E8
:1000D0001304010493070500138705002326F4FC8D
:1000E000930707002324F4FC8327C4FC2322F4FE97
:1000F000232604FE6F000009832744FE13850700B2
:10010000E7008001930705002322F4FE032744FE45
:10011000B7070080B367F7009B8707009397070234
:1001200093D7070293970702233CF4FC232404FE91
:100130006F008003836784FE93973700033784FD45
:10014000B306F700836784FE93973700033784FD77
:10015000B307F7001387060023B0E700832784FE68
:100160009B8787002324F4FE832784FE1B870700D8
:100170009307F007E3F0E7FC8327C4FE9B87170093
:100180002326F4FE0327C4FE832784FC1B070700F5
:100190009B870700E362F7F68327C4FC2322F4FE63
:1001A000232604FE6F008009832744FE1385070081
:1001B000E7008001930705002322F4FE032744FE95
:1001C000B7070080B367F7009B8707009397070284
:1001D00093D7070293970702233CF4FC232404FEE1
:1001E0006F000004836784FE93973700033784FD14
:1001F000B307F70083B70700036784FE13173700C0
:10020000833684FD3387E6006386E700930710009A
:100210006F004004832784FE9B8787002324F4FE1D
:10022000832784FE1B8707009307F007E3FCE7FAA8
:100230008327C4FE9B8717002326F4FE0327C4FEF2
:10024000832784FC1B0707009B870700E36EF7F4F6
:1002500093070000138507008330810303340103F3
:100260001301010467800000130101FE233C11000B
:100270002338810013040102B75734129B87876724
:100280002326F4FEB78701009B87076A2324F4FE28
:100290008327C4FE032784FE930507001385070008
:1002A000E700400C930705009B8707009B8707002A
:1002B000138507008330810103340101130101021A
:0702C0006780000000000050
:00000001FF
